:050000000101010101F6
:1008000053494E4154454320323032312049454509
:100810004520554E4143205045525520FA0E016E59
:100820000000002E10EF04F01200640E026E0EECB9
:1008300004F0022E17EF04F012000A0E036E15ECFE
:1008400004F0032E1FEF04F012000F0E006E0000E4
:10085000002E27EF04F01200948E949CAC9CAC8A7E
:10086000AC98AC84AB8EAB9CAB88B886670EAF6E91
:10087000B06A1200AD6EACA23BEF04F01200046E41
:10088000000EF86E080EF76E000EF66E0450F62697
:10089000E86AF726F8260900000EF56251EF04F029
:1008A0001200F5503AEC04F04BEF04F0D38CD38AED
:1008B000D398000E956EFF0E8C6E2CEC04F00000A9
:1008C000000E3FEC04F01DEC04F060EF04F056EF76
:0208D00004F032
:020000040030CA
:04000000210A1F00B2
:020005008385F1
:060008000FC00FE00F40E5
:00000001FF
